:020000040000FA
:10000000000700206D020000810200008302000052
:10001000850200008502000085020000000000004B
:100020000000000000000000000000008502000049
:10003000850200000000000085020000850200002B
:100040008502000085020000850200008502000094
:100050008502000085020000850200008502000084
:100060008502000085020000850200008502000074
:100070008502000085020000850200008502000064
:100080008502000085020000850200008502000054
:100090008502000085020000850200008502000044
:1000A0008502000085020000850200008502000034
:1000B0008502000085020000850200008502000024
:1000C0008502000085020000850200008502000014
:1000D0008502000085020000850200008502000004
:1000E0008502000000000000000000008502000002
:1000F000F50F000085020000850200008502000067
:1001000085020000850200008502000085020000D3
:1001100000000000000000008502000085020000D1
:1001200085020000850200008502000085020000B3
:1001300085020000850200008502000085020000A3
:1001400000000000000000000000000000000000AF
:100150008502000085020000850200008502000083
:10016000000000000000000000000000000000008F
:10017000000000000000000000000000000000007F
:10018000000000000000000000000000000000006F
:10019000000000000000000000000000000000005F
:1001A000000000000000000000000000000000004F
:1001B0008502000085020000850200008502000023
:1001C0008502000085020000850200008502000013
:1001D0008502000085020000850200008502000003
:1001E000850200008502000085020000000000007A
:1001F000000000008502000085020000850200006A
:1002000085020000850200000000000000000000E0
:1002100085020000850200008502000085020000C2
:1002200085020000850200008502000085020000B2
:1002300085020000850200008502000085020000A2
:100240008502000085020000850200008502000092
:100250008502000085020000850200008502000082
:100260008502000085020000850200004EF68850DD
:10027000CEF20000016841F47001016000F004B8A2
:10028000FEE7FEE7FEE70000DFF80CD000F01AF80A
:1002900000480047492E000000070020EFF31080BF
:1002A00072B67047EFF310807047EFF3108062B6BC
:1002B000704730BF704780F311887047EFF31180AB
:1002C00070470000064C074D06E0E06840F001036F
:1002D00094E8070098471034AC42F6D3FFF7D8FFF4
:1002E00088360000A836000030B58C1810F8012BB5
:1002F00012F00F0301D110F8013B120906D110F8DA
:10030000012B03E010F8015B01F8015B5B1EF9D1E2
:1003100001E001F8013B521EFBD1A142E6D30020CF
:1003200030BD00002DE9F0474FF080740022206AB4
:100330004FF04025FC21436828469847206A404EEC
:1003400000224368FF2130469847206A3D4F002233
:100350004368F02138469847206ADFF8EC80002295
:100360004368CF2140469847206ADFF8E09000229A
:1003700043683F2148469847206ADFF8D4A000220E
:100380004368112150469847206A0A230122D0F879
:1003900014C0FC212846E047206A0A23012245694F
:1003A000FF213046A847206A0A2301224569F0212F
:1003B0003846A847206A0A2301224569CF214046D2
:1003C000A847206A0A23012245693F214846A847D9
:1003D000206A0A230122446911215046A0471D4C7E
:1003E000204600F09DFD0028FAD01A4C641C2046DF
:1003F00000F096FD0028FAD0164CA41C204600F010
:100400008FFD0028FAD0134CE41C204600F088FD34
:100410000028FAD00F4C241D204600F081FD002852
:10042000FAD00C4C641D204600F07AFD0028FAD06A
:1004300000F072F80849C0434860BDE8F08700004A
:10044000005000400060004000700040004002404A
:1004500000500240000800F0000000204FF08070C3
:100460000E21006AC26B0148104700000050024094
:1004700010B4002919BF00224FF0010C10BC7047C6
:1004800011F0010F0BD0D0F8D0400CFA02F39C43CE
:10049000C0F8D040D0F8D4402343C0F8D430490845
:1004A00000291CBF521C082AEAD310BC7047D0F8A0
:1004B000D42022EA0101C0F8D41070470020704710
:1004C00070B50124124A25061248072913D005DC0D
:1004D00051B101290AD0052918D10AE0082903D011
:1004E000B1F5104F12D10EE014700FE00020107023
:1004F0000CE0147001E002211170296A00220B68DF
:100500000421984702E002480C301860002070BDBA
:1005100000000020005002402DE9F0474FF08075A8
:10052000FC21286AC26A4FF04020904700F0FF0982
:10053000286AFF21C26A2348904700F0FF08286A12
:10054000F021C26A20489047C7B2286ACF21C26A08
:100550001E489047C6B2286A3F21C26A1C4890478D
:10056000C4B2286A1F21C26A1A4890471A49C0B209
:1005700091F90020002A01DD44F0020491F90120E4
:10058000002A01DD44F0040491F90210002901DD84
:1005900044F00804310700F0100241EA075141EA33
:1005A000C24100F0010041EA805141EA893006F081
:1005B000C00140EA012040EA042040EA0800C043AC
:1005C000BDE8F0870050004000600040007000402F
:1005D00000400240005002400C00002070B58446EC
:1005E000002420301D46142942D008DC092946D2B7
:1005F000DFE801F01521454545453E3E3E00B1F599
:10060000104F29D004DC152918BF162937D12FE047
:100610006FF41042891832D0052919D02FE001213A
:1006200080F86C10DCF80C000023DCF808C01A46D7
:100630001946E04723E0002180F86C10DCF80C003C
:10064000DCF808C00B460A460121E047044616E0E4
:1006500070300824186012E0012A10D1DCF80C0078
:10066000DCF808C000224FF41041E047044606E0E1
:10067000DCF80C00DCF808C02B46E04704462046B6
:1006800070BD034610B52030052907D1012180F83F
:100690006C10D3E902C000230521E047002010BD03
:1006A00070B5044600F1380590F8640000281CBFBE
:1006B000204600F0C9FB688B10F0200F08BF70BD0A
:1006C00095F83010054802F05FF8D4E904C50246F9
:1006D0002846BDE870400023022160470000054025
:1006E00070B50126044600F1380580F8506080F8A6
:1006F000516090F8640028B90023D4E904C01A4678
:100700001946E047607A0021002888BF02220BD9F1
:10071000E06802EBC10C10F83130491C9B0020F856
:100720000C30607A8842F3D885F82C6070BD0E39A1
:1007300000F1380C092928BF7047DFE801F00509EE
:100740000808080822172D0050788CF831007047EF
:100750001078517810F0800F4FF0F00000EA01108F
:1007600014BF8CF82F008CF830007047D0F810C000
:10077000BCF1000F08BF7047406900231A461521DD
:100780006047D0F810C0BCF1000F08BF7047406947
:1007900000231A4614216047D0F810C0BCF1000FA6
:1007A00008BF7047406900231A461621604710B5FC
:1007B000044690F8640028B10023D4E904C01A4626
:1007C0000121E047002084F8640010BD8446002920
:1007D00008BF70470CF138019CF85000022818BF80
:1007E000704701200876DCF814000A8C8B6ADCF86C
:1007F00010C049F2030160470146383090F82E20BE
:10080000002A08BF7047002280F82E20D1E904C0DA
:10081000134649F2010160472DE9F047884690F8F8
:100820006810044600F1380708094FF4803202FAD4
:1008300000F010EA080F33D0DFF8F8903D46484644
:1008400002F016F80646024695F83010484601F0C8
:1008500059FC16F4803F19D005F11A0000F07042DF
:10086000C0F3130042EA401040F0140040F0007062
:100870000121018095F83010286801F085FFD4E946
:1008800004C5002302460221284608E016F4602F22
:1008900006D0D4E904C0002306F460220621E04714
:1008A00097F82F100126080906FA00F010EA080F41
:1008B00008BFBDE8F087254654F8380F01F0D8FF8F
:1008C0002368024694F82F10184601F01BFCA18BF8
:1008D000E08B814212D16676D5E906C00023A28B57
:1008E0000521E047608B10F0400F08BFBDE8F0879E
:1008F00000212846BDE8F04700F0A6BA0D1A402DA9
:1009000088BF4025616A2B460A1894F82F1020688A
:1009100001F073FF401C08BFBDE8F087E08B4FF487
:1009200081722844E08394F82F102068BDE8F047D6
:1009300001F080BF000005402DE9F00F4B881E0A32
:10094000212E44D0222E18BF232E4CD10022476ADC
:1009500003F0FF0A904697F8059094461446134614
:10096000B9F1000F15D903EB4305AD1D3D4495F8D2
:1009700000B0B3450AD14FF00108D4451CBF0CF1BB
:10098000010C1C4602D1B5F8012011E05B1C994511
:10099000E9D8232E0AD1B8F1000F07D004EB4402A6
:1009A000921D3A442346B2F8012001E04FF0FF3394
:1009B00013F1010C17D0C988914238BF0A46806AEA
:1009C00050F82310BDE8F00F002000F003BD406A8E
:1009D000C9880278914238BF0A460146BDE8F00F47
:1009E000002000F0F7BCBDE8F00F002000F0FCBCD8
:1009F000F0B5044600F138050E46888895F83110A8
:100A000083B088421CBF03B0F0BD70780C287AD246
:100A1000DFE800F0A220689FA2A2A2A2A206378E61
:100A2000F0882884D4E904C0F388728849F202016E
:100A3000E047A862002866D002202876F2880020CD
:100A4000A96A00F0BDFC00221146286801F009FBEC
:100A500003B0F0BDD4E904C0728802AB4FF410417A
:100A6000E047044601220021286801F0FAFA01203B
:100A700085F82E0022460020029900F0ABFC03B05E
:100A8000F0BD71880027CEB20B0A617A20463A4643
:100A9000002988BF00241ED9C168002E01EBC201C5
:100AA0001CBF91F801C0B4450CD10B7053B1D1F803
:100AB00004C0BCEB830F27BF4C800127CCEB830C19
:100AC000A1F802C0521C417A9142E5D8002F1CBF08
:100AD000002100F0B9F901220021286801F0C1FAD3
:100AE00003B0F0BD637AB1780020002B88BFD4F842
:100AF0000CC00CD90CEBC00200291CBF54788C42EE
:100B000002D1107805E027E0401C8342F2D84FF074
:100B1000FF300190401C1FD001220021286801F005
:100B2000A0FA012201A9002000F054FC03B0F0BD9E
:100B3000E079012810D101220021286801F091FA02
:100B4000D4E904C07288002349F20501E04703B0EC
:100B5000F0BDE079012804D0002000F045FC03B08E
:100B6000F0BD01220021286801F07BFAD4E904C01D
:100B700000231A4649F20401E0478DF800000122E3
:100B80006946002000F026FC03B0F0BD10B5044615
:100B900090F8640028B10023D4E904C01A4601216A
:100BA000E047002084F8640010BD0023D0E904C0B1
:100BB0001A46082160470023D0E904C01A460721DD
:100BC0006047000010B54FF08074606C816919486F
:100BD0008847606C81691748401C8847606C816950
:100BE0001448801C8847606C81691248C01C884783
:100BF000606C81690F48001D8847606C81690D48F1
:100C0000401D88470D490C480860091D0A6842F0DC
:100C100080020A600A490860081D016841F001016C
:100C20000160FFF71BFCFFF77DFBBDE8104001F002
:100C30004BBE0000000800F04B434F4C20750040B5
:100C40002055024010B54FF08074A06F00698047B6
:100C5000606CC16DBDE8104000480847400500C108
:100C60001649042804BF086820F4803018D00528ED
:100C700004BF086820F4003012D0062812D00F28D4
:100C800015D0102838BF7047103800F01F0101221E
:100C900002FA01F142090A4850F822000160704747
:100CA00008607047086820F48020086070474FF0A3
:100CB000E020016921F002010161704724ED00E0AC
:100CC000943500001649042804BF086840F48030B9
:100CD00018D0052804BF086840F4003012D0062858
:100CE00012D00F2815D0102838BF7047103800F0E8
:100CF0001F01012202FA01F142090A4850F82200BC
:100D00000160704708607047086840F48020086000
:100D100070474FF0E020016941F002010161704726
:100D200024ED00E0803500000021154A042804BFAE
:100D3000106800F480311BD0052804BF106800F44F
:100D4000003115D0062804BF106800F480210FD0B0
:100D50000F280FD010280BD310380A4A410952F837
:100D60002110096800F01F00012202FA00F0014082
:100D7000084670474FF0E020006900F00201F7E7F5
:100D800024ED00E08035000010B5FFF787FA002859
:100D900018BF012010BD10B5FFF787FA002818BF53
:100DA000012010BD0A4B002253F822C0BCF1000FF5
:100DB00008D0521C062AF7DB062A0CBF4FF0FF3082
:100DC0000020704743F82200024840F82210F3E761
:100DD000BC010020D40100202DE9F04107460A485B
:100DE0000A4D0024416805F118063944416055F860
:100DF00024201AB156F8240039469047641C062C6A
:100E0000F5DBBDE8F081000020010020BC010020DE
:100E1000DFF82CC09CF80000002818BF70470020A5
:100E20000146084A02F1180342F8201043F8201046
:100E3000401C0628F8D301208CF800007047000001
:100E400020010020BC0100202DE9F84F054600F1EB
:100E50003808407A4FF000090F464C46002884BFFE
:100E60004FF0040A4FF0020B36D9E8680AEBC401D0
:100E700042583A444250E86810F8341041B30BEB42
:100E8000C406815BB94288BFC91B20D898F81910E5
:100E9000012904BF98F82D10002904D000218153A6
:100EA0004FF0010914E0012101EBC4016B46425CE3
:100EB000D5E904C049F20601E0470246012328466D
:100EC000009900F049FEE86810F834108900815359
:100ED000687A641CA042C8D808F11A0000F070417A
:100EE000C0F3130041EA401040F0180040F00070D9
:100EF000A0F80090BDE8F88FC0F307230749C0B2FF
:100F0000194401F07043C1F3130143EA411141EA6E
:100F1000800040F0007001220260704700E60F4040
:100F2000C0F307220849C0B2114401F07042C1F376
:100F3000130142EA411141EA800040F0007000686C
:100F4000002818BF0120704700EA0F40C0F30723B4
:100F50000C49C0B2194401F07043C1F3130143EAD4
:100F6000411141EA800040F0007181B001220A6025
:100F7000002200920098401C00901028FAD30A60CA
:100F800001B0704700E50F400248016F21F4804135
:100F90000167704700E00F4070B50C46054604211C
:100FA00001F0DEFD20F00300E1B241EA000204217D
:100FB000284601F0E5FD0721284601F0D1FD20F08B
:100FC0007000C4F3072140EA01020721284601F01E
:100FD000D7FD0A21284601F0C3FD20F0E000C4F34C
:100FE000074140EA01022846BDE870400A2101F0AD
:100FF000C7BD000010B5044801F0B4FC0146BDE8CF
:101000001040002001F06ABA00000540491E11435B
:10101000C0F8C81F7047D0F8C00F00F00F0070472D
:101020002DE9F04705460026007898461746894680
:10103000344600281CD968684A4650F824000188C4
:10104000406800F0A7FF3044B8420CD9C8F800400F
:101050006868BB1B4A4650F8240001884068BDE818
:10106000F04700F07DBF06462878641CA042E2D815
:101070000020BDE8F0872DE9F04105460026007804
:101080000F46344600280ED968683A4650F82410B6
:1010900008884B680146184600F07CFF0644287813
:1010A000641CA042F0D83046BDE8F0810246002022
:1010B00013780146002B8CBF5268704752F821C04C
:1010C000491C8B42BCF800C06044F7D870472DE93A
:1010D000F04705461E46501C4FF0000716D06C68BE
:1010E00001F0FF08BC46206861464068002848D0EF
:1010F0004378042B04BF837843452ED1944518BF11
:101100000CF1010C29D13160BDE8F08728784FF04F
:1011100000084FF0040A89464446002831D968681F
:10112000524650F824000188406800F033FF4044E4
:1011300048450CD934606868A9EB0803524650F85A
:10114000240001884068BDE8F04700F009BF8046F0
:101150002878641CA042E2D813E00378184454F8BD
:101160002130D3F804901B884B44834207D8287859
:10117000491C884286BF54F821004068002000289E
:10118000B6D13846BDE8F08738B51D4604466B46F3
:10119000FFF79DFF00281CBF0179A94288BF0021ED
:1011A0001AD94278052A19D0027863681044009A47
:1011B00053F82230D3F804C01B886344834209D813
:1011C000501C00902278824283BF626852F820004F
:1011D000406800200028E4D1002038BDA94218BF93
:1011E000491CE1D138BD00000D483C2101640D4986
:1011F00009680D4A1140A1F18052B2F5202204BFC6
:101200003A210164002101228260C2608164017080
:1012100080F8241080F8381080F8371070470000EC
:101220006C01002000E00F400000FF702DE9F04746
:101230005B485C4C0E4601603C20C4E910025A48F1
:1012400000685A490840A0F18051B1F5202104BF3F
:101250003A20206400254FF00108C4F80880C4F843
:101260000C80A564257084F82450514F84F83850C0
:1012700084F837503A78DFF83C91032A08BF3D7074
:1012800001D0022A52D0DFF830A15046FFF75EFEAF
:101290005046FFF731FEFFF777FEDFF820A14FF44D
:1012A00000724846DAF80010FFF7B0FEDAF80800DE
:1012B0000028484610D001F04BFC9AF8080010F0C6
:1012C000100F04D000214846FFF766FE06E001211A
:1012D0004846FFF761FE01E001F032FC3A78052A4A
:1012E00005D0002A04BF484601F018FC02E0484639
:1012F00000F048FF3D7094F84C0010F0010F0DD045
:101300000C21484600F02DFF3621484601F04FFBE6
:10131000484600F030FFC4F8488007E0484600F037
:1013200023FF0021484600F01CFFA564002001F0C7
:1013300047FBE063FFF76CFDE168B0686FF0030204
:1013400002EB81014058C021406800684068C079C4
:1013500031EA000094F824000CBF40F0010020F0B6
:10136000010084F824003878022808BFBDE8F0871F
:10137000484601F0F7FA484601F014FB2F21484691
:1013800001F0CEFA4FF0FF31484601F0DFFA48464F
:1013900000F019FE206CBDE8F047FFF793BC000099
:1013A000080100206C01002000E00F400000FF70E9
:1013B000EC00002000000540002800F0FC000020A8
:1013C0000348032303700262C26181617047000019
:1013D0006C0100200348C26181610262002000F0BC
:1013E00063B800006C01002010B5002211460348CC
:1013F00000F049FE02490520087010BD00000540BC
:101400006C0100202DE9F041254E0C4605460122D5
:101410000021304600F025FE2078DFF8888010F0AB
:101420001F004FF0050702D0022815D00BE0A0786E
:1014300010F0010F07D095F8240020F0020085F885
:101440002400BDE8F08100221146304600F01BFE6A
:1014500088F80070BDE8F081A08810F07F02F2D01B
:10146000082A9CBF61880029EDD1012131EAD01002
:10147000C0EBC0032B4413444FF0000183F8241049
:101480004FEA021105D03046BDE8F041002200F0DD
:1014900014BE3046BDE8F0414FF4005200F00DBEDE
:1014A000000005406C01002070B5194D0120287026
:1014B000EC69402C88BF4024AA69E869001BE861F8
:1014C0001019144EA86123460021304601F095F909
:1014D000402C15D0042129704FF48572002130462C
:1014E00001F0A8F90C48006800684269002A1ABF98
:1014F000296A002970BD686C90470020286270BD81
:101500003046BDE870404FF48172002101F092B97D
:101510006C01002000000540080100202DE9F04F7B
:10152000DFF8609183B0022089F80000DFF858B13D
:1015300099F83610D9F81C60DBF80000806850F884
:101540002180402E88BF4026B9F834004FF0000AB1
:10155000002806BF99F83300002834465FD03CB31A
:1015600099F83310D8F8040050F82170B9F8340015
:1015700039880D1A79680A18A54288BF25462B4676
:101580000021424801F039F9B9F83400641B50FADF
:1015900085F080B2A9F834003988884206D199F8DC
:1015A0003300401C89F83300A9F834A0002CD7D1AF
:1015B000D9F81C00801BC9F81C0098F8001099F895
:1015C0003300814298BFC9F81CA0D9F81C1049B15A
:1015D000D8F8041051F820004168B9F834000844E4
:1015E000C9F81800402E43D04FF4857200212748D7
:1015F00001F020F9DBF8000000684269002A1CBFF6
:10160000D9F82010002904D0D9F844009047C9F82F
:1016100020A0042089F8000003B0BDE8F08FD9F8BD
:1016200018000168009141680191007A8DF8080066
:101630004046FFF73BFDADF80200092E34BF3446AB
:10164000092423466A460021104801F0D6F8D8F84C
:10165000040000680088A04203BFA9F834A001205C
:1016600089F83300E0B218BFA9F83400341B76E7DC
:101670004FF481720021054801F0DCF803B0BDE8A9
:10168000F08F00006C0100200801002000000540E0
:1016900038B5044600221146094800F0E2FC6068B3
:1016A00010F0004F14BF0020207A8DF800000120B8
:1016B000E061C4F818D00020FFF7F6FE38BD000046
:1016C000000005402DE9F05FDFF85CB10E460446EE
:1016D000002211465548DBF8005000F0C2FC71882A
:1016E0000027080A012812D0DFF84481BA464FF0DB
:1016F0000509022811D0032833D028680268002A7F
:101700007ED03146D8F84400BDE8F05F10476868E5
:10171000A06168680078E06165E06868CFB2407CED
:10172000B8420CD800221146404800F0ACFC88F8C2
:101730000090C4F818A0C4F81CA0BDE8F09FA868E9
:1017400050F8270084F833A0A4F834A04168096851
:101750004968A161FFF7AAFCE06184F836700127AF
:1017600041E0DBF80000B6F804C0CBB24FF0FF3B1D
:1017700000281CBFC168002920D003B30968006994
:101780000A78A0F1010A921E02EBD2725210BAFB43
:10179000F2FA0AFB02FE0EF1010E86450ED1002080
:1017A000002A0BD901EB400EBEF802E0E64502D15B
:1017B0000AFB003A03E0401C9042F3D3DA461AF1E8
:1017C000010009D0E86850F82A00A061E86850F8E4
:1017D0002A000078E06106E000221146134800F07C
:1017E00052FC88F80090A069002808BFBDE8F09F6F
:1017F000E169F088814288BFE0614FF0000000E0BD
:1018000004E067B1BDE8F05FFFF788BE0022114633
:10181000064800F038FC88F80090BDE8F09FBDE86D
:10182000F05FFFF741BE0000080100200000054006
:101830006C010020F8B5144E0D46044600221146F6
:10184000304600F00EFC626812F0004F18BF002016
:1018500009D08DF800000120E061C4F818D0002004
:10186000FFF722FEF8BDA98808293CBF04F110004B
:10187000085CEED300221146304600F004FC034918
:1018800005200870F8BD0000000005406C01002034
:101890002DE9F843DFF878800D4604460022114612
:1018A000404600F0DEFB287810F01F0008BF94F8D7
:1018B000240019D0012804BF0020ADF8000015D085
:1018C0000526144F02281AD1A98801F07F000028AC
:1018D00018BF082813D2012222EAD111C1EBC1019D
:1018E0002144084490F82400ADF800000220E06193
:1018F000C4F818D00020FFF7D7FDBDE8F883002218
:101900001146404600F0BFFB3E70BDE8F883000082
:10191000000005406C0100202DE9F0413948C86302
:1019200039480864486B4864C86A886401F138041F
:10193000086B0026C86484F831600D4684F82F6077
:1019400084F83060686B174631460068334632468B
:10195000FFF71AFC48B1807810F0800F4FEA0010B2
:101960000CBF84F8300084F82F0094F83110686BB5
:10197000012300220068FFF707FC48B1807810F0CF
:10198000800F4FEA00100CBF84F8300084F82F005D
:1019900094F82F00002808BFBDE8F081002F1CBF7D
:1019A000201DC7E900051948206026766676668303
:1019B00084F82C6084F82E6084F82D60E683A6837A
:1019C00066622684211D0020A662FFF70DFC697A5D
:1019D0000020002988BF02220BD9E96802EBC00C65
:1019E00011F83030401C9B0021F80C30697A81429C
:1019F000F3D8FFF70DFA29460548FFF7D3F9284633
:101A0000BDE8F081583600000C01002000000540C0
:101A1000A106000030B40B4620314FF0000C81F8D5
:101A20006CC05C884C801C880C809C888C809C7965
:101A30008C7181F807C081F808C001244C7201F153
:101A40007004CC607D2481F8704081F871C0C1F8C9
:101A500074C0144CA1F872C0C1E90534124C0C6179
:101A6000124DCB6181F820C0A5F10D04C1E90954E4
:101A7000D3F810C0C1F82CC0D3F814C0C1F830C0DE
:101A8000DFF82CC0C1F834C0D3F818C0BCF1000F87
:101A900004D0C4F800C09B8BA5F8073030BCFFF71A
:101AA0003BBF000083060000DD050000B9000020F8
:101AB0002036000070B50C46064601F120050022D4
:101AC000FFF7A8FF01000848A279C271A288C2F3FB
:101AD0004702027204BF002070BD2946304600F064
:101AE00028F8204670BD0000B00000202DE9F0412C
:101AF00000F1200590F88C0016460F462C46002871
:101B000004BF0220BDE8F081284600F075F868B1F6
:101B1000022084F86C00012332463946284600F042
:101B20001BF800281CBF0020BDE8F0810120BDE8A3
:101B3000F08170B50C4605460022FFF7EDFE206CE3
:101B40002188224601816188418104F13C012846B7
:101B5000FFF76CFB204670BD2DE9F0474FF0010CFC
:101B6000164600F1380480F865C090F8512000272F
:101B7000012A1EBF84F82D700020BDE8F087C6B191
:101B800091F80080437A4FF00002012B88BFC568AE
:101B900008D90CEBC20915F80990C1451CBF521CAD
:101BA0009342F6D8934204D9C068042303EBC202DF
:101BB00087506162E783B5B2A58302200A4660764A
:101BC000402D88BF402594F82F102B46206800F048
:101BD00014FE411C09D0E08B4FF481722844E0834D
:101BE00094F82F10206800F025FE84F82D70401C1A
:101BF00018BF3046BDE8F08790F85100012814BFA7
:101C000000204020704700EB0110C0F80822704708
:101C100000EB01104FF0000CC0F804C243EA0201CF
:101C2000C0F80412704700EB0110C0F80C22704796
:101C300000EB0110D0F8041221F00101C0F80412E9
:101C4000704700EB0110D0F8041241F00101C0F818
:101C50000412704700EB0110D0F8041221F00801C3
:101C6000C0F80412704700EB0110D0F8041241F0E4
:101C70000801C0F804127047D0F80002704700EB6A
:101C80000110D0F8040200F480707047F8B5194CC8
:101C90004020194F00906B4622460021384600F044
:101CA00082FD0098002808BFF8BD2078134D10F081
:101CB000600F4FF0050611D01148006800684268B7
:101CC000002A1CBF2146686C01D09047F8BD002255
:101CD0001146384600F0D7F92E70F8BD61780D290D
:101CE000F5D2084850F82120002A1CBF214603489D
:101CF000EDD0EAE72C010020000005406C01002037
:101D0000080100202436000070B50D46044601226B
:101D10000021054800F0A5F9688840F000406060A7
:101D20000420207070BD0000000005402DE9F04146
:101D300004462448DFF890800E4605680122002101
:101D4000404600F08EF969687088204F497C8842CF
:101D500008D900221146404600F095F90520387058
:101D6000BDE8F081A060A0B172886FF00301A8689F
:101D700001EB8202805894F8372040680068406880
:101D800092B17288A86801EB82014158204600F0A8
:101D9000FDF92868C268002A08BFBDE8F081A16883
:101DA000786CBDE8F0411047C079C02232EA0000EB
:101DB00094F8240014BF20F0010040F0010084F8E2
:101DC0002400DEE708010020000005406C0100202F
:101DD00010B5074C00221146204600F042F90022BF
:101DE0001146204600F04FF902490520087010BD49
:101DF000000005406C0100202DE9F041DFF87480FF
:101E00000C46054601220021404600F02AF92078C0
:101E1000194F10F01F004FF0050602D0022814D011
:101E20000BE0A07810F0010F07D095F8240040F0E7
:101E3000020085F82400BDE8F081002211464046EA
:101E400000F021F93E70BDE8F081A18801F07F002B
:101E5000002818BF0828F0D26288002AEDD101229C
:101E600022EAD111C1EBC1012944084480F82420A1
:101E7000BDE8F081000005406C0100202DE9F84F1D
:101E800006462A48DFF8A8B00D46D0F800800122A7
:101E90000021584600F0E5F8B168D8F808006FF066
:101EA000030202EB810150F801A004215046FFF724
:101EB000E2F8DFF88090071E4FF000042CD96B4643
:101EC0004FF0FF3221465046FFF701F908B3817801
:101ED000AA8891421DD1C1786A88914219D182782D
:101EE000B3181974C3785146304600F01FFA002821
:101EF00008BFBDE8F88FD8F800008368002B08BF42
:101F0000BDE8F88FAA782979D9F844009847BDE848
:101F1000F88F641CBC42D2D300221146584600F010
:101F2000B2F8052089F80000BDE8F88F080100200C
:101F3000000005406C01002010B5074C0122002173
:101F4000204600F08EF800221146204600F09BF853
:101F500002490520087010BD000005406C010020FA
:101F600070B40024A446002988BFD6B20FD9551CEE
:101F70001CBF4578B54205D19C4512BF0CF1010C40
:101F800070BC704705782C4428448C42EFD370BC59
:101F90000020704730B400231C46002988BFD5B20A
:101FA0000CD912F1010C1ABF90F801C0AC45641CA9
:101FB00090F800C0634460448B42F2D3204630BCAA
:101FC000704701707047417841F04001417070479F
:101FD000417821F040014170704713F4005F92B2E4
:101FE00001441CD0A1F80021002013F0010F18BFFC
:101FF000802013F0100F18BF40F0140004D113F02C
:10200000080F18BF40F0100013F4407F08BF40F0E5
:10201000400081F80301402081F802017047A1F8D7
:102020000421002013F0040F18BF802013F0100FBC
:1020300018BF40F0280004D113F0080F18BF40F07B
:10204000200013F0200F18BF40F0100013F4407F61
:1020500008BF40F0400081F80701802081F80601A8
:10206000704739B1084490F8061121F0010180F859
:1020700006117047002A14BF0821002141F04001D9
:1020800080F802117047002904BF90F8021141F056
:1020900060010FD00844B2F5005F04BF90F8021150
:1020A00041F0100106D090F8061141F0200180F8AF
:1020B0000611704780F802117047002904BF90F89C
:1020C000021121F004011AD00844B2F5005F0CD0CF
:1020D00090F8061121F0600180F8061190F80611C1
:1020E00041F0800180F80611704790F8021121F04C
:1020F000300180F8021190F8021141F0400180F89F
:102100000211704781B1084490F8021102F02403D3
:10211000994380F8021190F806114C2303EA124209
:10212000914380F80611704712F0010F05D090F826
:10213000021141F0400180F8021112F0100F05D099
:1021400090F8021141F0800180F8021112F0040FA2
:1021500008BF704790F8021121F0040180F80211C5
:10216000704780F86213704790F8621321F0010104
:1021700080F86213704790F8621341F00D0180F807
:1021800062137047032180F81C1470472DE9F34F48
:1021900091B000200DF1080A80464AF830800AEB21
:1021A000C001401CC1F804800728F6D3052112980D
:1021B000FEF761FF054604211298FEF75CFF00243C
:1021C0008346002D88BF01261DD910AB224605216C
:1021D0001298FEF725FF8178024601F00F0026EAEB
:1021E000D11108287ED200287CD00AEBC00000EB79
:1021F0008100918850F8083C8B4238BF40F8081C99
:10220000641CAC42E1D3484E4FF00009BBF1000F13
:1022100044D910AB4FF0FF3249461298FEF757FFF2
:10222000040037D0E078002834D127790025002F2A
:1022300030D9E278A1782B461298FEF7A5FF30B38B
:102240008178828801F00F03C2F30A0211F0800145
:1022500018BF4FF400510191C07810F0030006BF81
:1022600041F44070019001280AD0022808BF41F4CF
:10227000807004D0032808BF41F4007000D10190A1
:10228000002B4CD019013046019BFFF7A6FE6D1CB8
:10229000BD42CED309F10109D945BAD34025012465
:1022A0004FF4005B4FF008090AEBC40757F8080C1D
:1022B000002818BF002311D009FA03F6B04204D950
:1022C0005B1C082BF8D9002643465EB121012A4643
:1022D0001548CDF800B000F0D7FA354457F8040C93
:1022E000002800E01BE018BF002311D009FA03F614
:1022F000B04204D95B1C082BF8D90026434676B1BE
:1023000021012A460848CDF8008000F0BDFA354486
:10231000641C082CC8D313B00120BDE8F08F13B0A3
:102320000020BDE8F08F0000000005402DE9F043DB
:10233000884683B01F46914604214046FEF79BFE27
:10234000061E4FF000054CD901AB4FF0FF32294675
:102350004046FEF7BCFE040040D0A078484504BFCC
:10236000E078B8423AD126790025002E88BF1F4F69
:1023700030D9E278A1782B464046FEF705FF30B30E
:102380008378828803F00F01C2F30A0213F0800CF5
:1023900018BF4FF4005CCDF800C0C07810F0030007
:1023A00006BF4CF44070009001280AD0022808BFF4
:1023B0004CF4807004D0032808BF4CF4007000D1A6
:1023C000009071B109013846009BFFF706FE6D1CB5
:1023D000B542CED303B00120BDE8F0836D1CB542F9
:1023E000B2D303B00020BDE8F08300000000054038
:1023F000F8B5374F04460021384600F039FA054653
:1024000020780026062828BFF8BDDFE800F0181D58
:10241000212503562670606810F0004F07D06068D1
:1024200020F00040606061683846FFF7CAFD15F093
:10243000010F08BFF8BD0020FFF728FCF8BD15F01C
:10244000010F08BFF8BDF6E70020FFF72DF8F8BD33
:102450000020FFF763F8F8BDE06940288CBF4020FA
:10246000E06900906B4600213846A26900F09BF9B4
:10247000E069402814D204202070164800680068E3
:102480000269002A1CBF216A002903D01248406C4F
:1024900090472662012200213846FFF7E2FD04E062
:1024A000002211463846FFF7DCFDA169009801447F
:1024B000A161E169081AE061F8BD15F0040F08BFD9
:1024C000F8BD042200213846FFF71CFE2670F8BD37
:1024D00000000540080100206C0100202DE9F047B4
:1024E0005F4FDFF880A10D463868002850D0DFF834
:1024F000788115F0040F4FF00006D8F8449017D0FB
:10250000444694F8241021F0020184F8241084F841
:1025100038600068816900291CBFD8F844008847EA
:10252000E068A06000202118401C0E740828FAD32F
:1025300015F0010F06D038680068C16900291CBF7A
:102540004846884715F0020F06D038680068016ACF
:1025500000291CBF4846884715F0200F06D0386870
:102560000068416A00291CBF4846884715F0080FDB
:1025700017D03E483E4C0168491C01606068401C11
:102580006060394800F076F86068052805D008E0FA
:102590005046BDE8F047FFF71BBD05206660FEF71B
:1025A0001BFC504600F009FAD8F84810022906D062
:1025B000012904BF00F01401042945D003E000F014
:1025C0001401102931D010F0020F07D038680068CC
:1025D000C36A1BB10022162148469847504600F0B6
:1025E000E1F9044610F0010F04D01F48FFF700FF87
:1025F00024F00104D8F83C00D0F8FC10884705000E
:1026000005D0D8F83C002946D0F8F8209047386823
:102610000068826A002A14BF54EA0500BDE8F0870A
:1026200021464846BDE8F047104738680068C36A4D
:102630001BB100221521484698470120C8F84800E0
:102640005046FFF798FDC9E738680068C36A1BB1B8
:1026500000221421484698470220C8F84800BDE7E8
:1026600008010020000005406C0100202801002026
:10267000FC00002010B5124C94F83800002808BF68
:1026800010BD94F83900401CC0B284F839000A2803
:1026900003D100210B4800F039F994F839001428CF
:1026A00018BF10BD002084F8380007480068006893
:1026B000016A002908BF10BD606CBDE810400847E2
:1026C0006C010020000005400801002092000F234B
:1026D00003FA02FC00F58A63D0F85004090920EAE5
:1026E0000C00914008431860704712F4005F0144E9
:1026F00010D091F8030112F0100F20F0840018BFE1
:1027000040F0040012F0010F18BF40F0800081F883
:102710000301704791F8070112F0100F20F0C80074
:1027200018BF40F0080012F0040F18BF40F08000FE
:1027300012F0020F18BF40F0400081F80701704707
:1027400012F4005F084406D090F8031121F0100144
:1027500080F80311704790F8071121F0200180F8EC
:102760000711704712F4005F084406D090F8031177
:1027700041F0100180F80311704790F8071141F003
:10278000200180F80711704700290CBF4FF48172B7
:1027900001F58372825A12F0010F0EBF0020084427
:1027A000B0F80801704710B400290CBF4FF4817CC9
:1027B00001F5837C30F80CC01CF0010F18D000EB41
:1027C000010CBCF808C11C68644598BFA44600EB26
:1027D00091002030C3F800C0BCF1000F05D0017893
:1027E00002F8011BBCF1010CF9D110BC00207047AC
:1027F0000020186010BC401E704710B400290CBFA8
:102800004FF0020C4FF0010C441894F8024114EA06
:102810000C0F1EBF4FF0FF3010BC704700EB910053
:10282000203023B112F8011B01705B1EFAD110BCDD
:1028300000207047431851B193F8020110F0010FC6
:1028400008BFC2F3072009D04FF0FF30704790F85F
:10285000020110F0020F08BFD0B2F5D183F80201D7
:1028600000207047090900EB8100C0F80023704781
:102870000844B0F80211B0F8060141EA0040704780
:1028800000EB910020307047DDF800C0DBB21CF493
:10289000005F90F80EC0C2F3CF02C1F3071181733D
:1028A00008D080F8623080F80EC0837B8173A0F876
:1028B000642007E080F8633080F80EC0837B81736A
:1028C000A0F866208373704770B54FF080740C4D8C
:1028D000606C816928468847606C81692846884712
:1028E000206A3021026F07489047002205211046D8
:1028F00000F018F9BDE8704003490020FFF7DAB88E
:10290000030800F000700040140000200029417806
:1029100014BF41F0040121F0040141707047000030
:1029200011F0FF0F02D0C27A0A43C27211F4807F05
:102930004FF0010218BFC0F8082411F4007F1CBF3B
:10294000014802607047000048040540C2880A43FD
:10295000C28002896FF0010303EA11411143018132
:10296000704700000146807AD1F80C3401F20C4225
:1029700013F0010F06D091F80C1440F4807041F070
:102980000101117006490A6812F0010F08BF704773
:1029900040F400700A6842F001020A6070470000CB
:1029A0004C0405404188808841EA0040704790F817
:1029B0006323114380F86313704790F864037047F2
:1029C00010B5394C3948216881426BD03C21C4E9AB
:1029D00000013749C4F8D8103649C4F8DC1036492C
:1029E000C4F8E4103549C4F8E0103549C4F8F410CF
:1029F0003449C4F8F0103449C4F8E8103349C4F835
:102A0000EC103349C4F8F8103249C4F8FC103249CC
:102A1000C4F800113149C4F804113149C4F808114F
:102A20003049C4F80C1130490968304A1140A1F10D
:102A30008052B2F5202204BF3A216160FEF7EBFA22
:102A4000012820D12A48C4F8D8002A48C4F8DC005C
:102A50002948C4F8EC002948C4F8FC002848C4F808
:102A6000F4002848C4F8F0002748C4F808012748B3
:102A7000C4F8E8002648C4F8E0002648C4F8E4009A
:102A80002548C4F80C0100200146221882F888105D
:102A900004EB8002401C9160C4F8D010C4F8D4103C
:102AA0000828F2D3004810BDEC01002000000540CA
:102AB000293000009130000051310000A9310000A0
:102AC000153200001332000017320000713200008E
:102AD0007104000097320000AF040000BD04000044
:102AE000CD3200009533000000E00F400000FF7081
:102AF000BF2B0000C12B0000192D0000512D00003C
:102B0000D32C0000CB2C0000572D0000DB2C000044
:102B1000792C0000452C0000472E0000002180F891
:102B20001C14704705480170C26000291CBF0129B0
:102B30007047002A08BF704700201047EC000020B3
:102B400000F6C471D0F8C40F20F4803008607047DC
:102B500000F6C471D0F8C40F40F4803008607047AC
:102B600080F87510052180F8761090F8761011F035
:102B7000020FFAD0002180F8761090F874007047A8
:102B800080F8751080F87420012180F8761090F894
:102B9000761011F0020FFAD0002180F876107047FD
:102BA00002E008C8121F08C1002AFAD17047704716
:102BB000002001E001C1121F002AFBD170477047BD
:102BC0002DE9F0411E46174688460546002428197F
:102BD00090F8880028B1641C062CF8D30020BDE8CA
:102BE000F08121462868FFF723F8281916F0800F96
:102BF00080F8888005EB84004FF00A01876215D0C9
:102C00000822826006F04302012A18BF0C21C0F896
:102C1000901016F0400F05D106F00301012918BFEE
:102C2000142100D11621C0F8B01008E0816042F2F2
:102C30000801C0F8901042F21101C0F8B010601CF9
:102C4000BDE8F08170B50D4604460068491EFEF7E8
:102C5000EFFF691E2068FEF7FDFF6A1E0120D4F811
:102C6000D01090408143C4F8D010D4F8D41021EA99
:102C70000000C4F8D40070BD70B504460D4640682D
:102C8000FEF752F806001CBF6068FDF7E9FF6A1EF8
:102C90000120D4F8D01090400143C4F8D010D4F8EB
:102CA000D41021EA0000C4F8D40011462068FEF7D1
:102CB000DAFF691E2068FEF7C4FF002E08BF70BD52
:102CC0006068BDE87040FDF7FDBF0068491EFEF773
:102CD000C1BF0068491EFEF7C6BF70B504460D4669
:102CE0000068FEF7A5FF6019002280F8872004EB3A
:102CF0008500A5F1010C42600121D4F8D03001FA21
:102D00000CF18B43C4F8D030D4F8D43023EA01015D
:102D1000C4F8D410426270BD70B505460E4600245A
:102D20000068FEF7ACFFB0F5807F08BF02240DD02D
:102D3000721E0120D5F8D4109040014218BF012422
:102D400004D1D5F8D010014218BF0424204670BD2C
:102D50000068FEF791BF2DE9F04198460E46044603
:102D600012F0030F1CBF0020BDE8F081731E01208C
:102D7000D4F8D01098400143C4F8D010D4F8D4103F
:102D800004EB860721EA0000C4F8D400C7F8648089
:102D90007A6419462068FEF736FF4246711E2068A5
:102DA000FEF741FF786AA51940452CD2B8FBF0F236
:102DB00000FB1280002818BF521C95F8871020686D
:102DC000FFF750FD95F88710D7F8AC202068FFF783
:102DD0008CFC786895F8872040F00403711E206809
:102DE000FEF716FF387995F8871010F0020F20686B
:102DF00014BF4FF400520022FFF7B4FC711E20688C
:102E0000FEF71FFF1CE095F88710D7F88C2020688C
:102E1000FFF76BFC95F887207B68711E2068FEF732
:102E2000F7FE387995F8871010F0020F206804D06B
:102E30004FF40052FFF796FCE0E70022FFF780FC1A
:102E40004046BDE8F081704700252C46FDF7FAFEAC
:102E5000FDF7B8FE224EA94686F8009006F10C0850
:102E6000DFF880A0C8F8039088F8009088F80190F7
:102E7000DFF874B088F802904FF08077641C5445F6
:102E800008D1386A2A46082103685846984785F0D1
:102E90000805002430780128F0D1FDF73DFBC8F883
:102EA000030071688842E9D00D49706007220C3137
:102EB0000E48FEF71BFEFDF767FF03203070FDF79D
:102EC0006AFFB068401CB060C928D7D1386A0222B6
:102ED0001146036858469847C6F80890CEE70000A8
:102EE00000000020410D03000050024014000020AB
:102EF000104B00F01F0011F0010F4FF001021CBF3A
:102F000002FA00FCC3F81CC011F0020F1CBF02FA49
:102F100000FCC3F834C011F0040F1CBF02FA00FC1F
:102F2000C3F83CC011F0080F1CBF02FA00F0586251
:102F30007047000000F00F4000F03F020448806836
:102F400000EB02108268034B1A4011438160704706
:102F500000F00F40F73FFC0000F01F00012101FAD4
:102F600000F00149C862704700F00F4000F01F00F8
:102F7000012101FA00F001498862704700F00F401A
:102F8000084900F03F00896801EB0010806800F0FC
:102F9000070020F00101042914BF062920F00100D8
:102FA0007047000000F00F40F0B400F03F0C1D48E7
:102FB000049D866806EB0C1084681CF0200F24F03A
:102FC000F70424F47C5404D0042914BF062941F0EA
:102FD00001016FF00F0707EB05170F433C4304F0A7
:102FE0004067B7F1406F04D0BF0E05FA07F73A44C7
:102FF000521E026004F04042B2F1404F0ED004294C
:1030000011BF06294CF0200106EB011101F10C0360
:103010001FBF910F05FA01F119444B1E84604360F4
:10302000F0BC704700F00F400B46022A08BF4FF477
:10303000804123D0042A08BF4FF400411ED0082A43
:1030400008BF4FF4404119D0102A08BF4FF4803117
:1030500014D0202A08BF4FF4A0310FD0402A08BF57
:103060004FF4C0310AD0802A08BF4FF4E03105D0B8
:10307000B2F5807F0CBF4FF40031002100EB8300DC
:10308000426802F07F4211434160581EFFF754BF6F
:103090002DE9F0411F468846064613F0800F14BF05
:1030A00000240124301990F8880028B1A41C062CB3
:1030B000F8D30020BDE8F081301906EB840580F8D4
:1030C0008880AA6217F0800F16D01F48A86007F00A
:1030D000430001280CBF0A200C20C5F8900017F00F
:1030E000400F05D107F00300012818BF142000D1BC
:1030F0001620C5F8B00009E01448A86042F20800A4
:10310000C5F8900042F21100C5F8B00022464146D1
:103110003068FFF7DBFA0F212046FFF7E9FE204673
:10312000A968FFF709FF306817F0800F04D000226C
:103130004146FFF705FB04E04FF400524146FFF71C
:10314000FFFA601CBDE8F0810080010C008001C026
:1031500070B50D46044600EB85004FF040614068B5
:10316000236831EA000204EB050090F8871016D0BE
:103170004FF400521846FFF7E3FA681EFFF7ECFE23
:103180006A1E0120D4F8D01090408143C4F8D010BA
:10319000D4F8D41021EA0000C4F8D40070BD002295
:1031A0001846FFF7CDFAE8E770B504460D464068CB
:1031B000FDF7BAFD06001CBF6068FDF751FD6A1EF1
:1031C0000120D4F8D01090400143C4F8D010D4F8B6
:1031D000D41021EA0000C4F8D40004EB85004FF0BD
:1031E00040614068814304EB050090F88710206837
:1031F0000CBF00224FF40052FFF7B4FA681EFFF72D
:10320000B5FE002E08BF70BD6068BDE87040FDF7D8
:1032100059BD7047704770B50D4604460F21681EB2
:10322000FFF766FE661996F8880010F0800F20F010
:103230008001206814BF00224FF40052FFF780FA8B
:10324000002204EB850086F887204260A5F1010C7E
:103250000121D4F8D03001FA0CF18B43C4F8D030FE
:10326000D4F8D43023EA0101C4F8D410426270BD0E
:103270000246A1F1010C0121D2F8D430002001FA5C
:103280000CF10B421CBF01207047D2F8D0200A423B
:1032900018BF042070472DE9F0410026D0F8D05027
:1032A0003446012715F0010F07D02046FFF768FECE
:1032B000002804BF07FA04F006436D08002D1CBF68
:1032C000641C082CEEDB3046BDE8F0812DE9F843A4
:1032D0001E4691460F460446402B28BF19F0030FA7
:1032E0001CBF0020BDE8F8837A1E0120D4F8D0105E
:1032F00090400143C4F8D010D4F8D41004EB8705F3
:1033000021EA0000C4F8D400C5F8449004EB070893
:103310006E6698F887102068FFF7B2FA696802466F
:103320004FF00853A7F1010C30468B4308BFB0089B
:103330004FF0406333EA0101009017D013464A462C
:1033400001216046FFF730FE686AB04214D2B6FB36
:10335000F0F298F887102068FFF784FA98F8871041
:10336000D5F8AC202068FFF7C0F90CE04B460121EE
:103370006046FFF719FEE7E798F88710D5F88C202C
:103380002068FFF7B2F939462046FFF70DFF3046B7
:10339000BDE8F8838C4630B400EB8C034FF04064FA
:1033A0005968082A24EA010010D0102A15D00028F4
:1033B0000CBF4FF02E404FF06A4021F07F41014397
:1033C000596030BCACF10100FFF7B6BD002814BF56
:1033D0004FF040404FF04060EFE7002814BF4FF03F
:1033E00055404FF0BA40E8E70403090424035400B1
:1033F0006500780061007300200049006E007300D2
:103400007400720075006D0065006E00740073003A
:10341000280352006F0062006F00630061007400B7
:103420007300200043006F006E00740072006F0094
:103430006C006C0065007200120331003200330032
:10344000340035003600370038002C0348004900AE
:1034500044002000470061006D00650070006100BD
:103460006400200049006E00740065007200660070
:1034700061006300650034034800490044002000F7
:10348000470061006D00650070006100640020006D
:1034900043006F006E0066006900670075007200EF
:1034A0006100740069006F006E000000E8330000E6
:1034B000EC33000010340000383400004A340000BF
:1034C0007634000000070000000600000005000040
:1034D00000040000000300000002000000010000E2
:1034E000000000000000000018ED00E01CED00E00E
:1034F00020ED00E000E400E004E400E008E400E087
:103500000CE400E010E400E014E400E018E400E063
:103510001CE400E020E400E024E400E028E400E013
:103520002CE400E030E400E034E400E038E400E0C3
:103530003CE400E040E400E044E400E048E400E073
:103540004CE400E050E400E054E400E058E400E023
:103550005CE400E060E400E064E400E068E400E0D3
:103560006CE400E070E400E074E400E078E400E083
:103570007CE400E080E400E084E400E088E400E033
:1035800000E100E004E100E008E100E00CE100E01F
:1035900010E100E080E100E084E100E088E100E08B
:1035A0008CE100E090E100E000E200E004E200E0F5
:1035B00008E200E00CE200E010E200E080E200E05F
:1035C00084E200E088E200E08CE200E090E200E0CB
:1035D0000705810340000105010904A10105010956
:1035E00001A10009300931093275089503810205EE
:1035F0000919012920150025013600004601007532
:103600000195208102C0C00009000000B000002028
:1036100009000000C200002007000000D0350000B3
:10362000E4000020911800000514000000000000D4
:10363000F91D000000000000091D0000C516000073
:10364000D11D0000911600002D1D0000351800004E
:103650007D1E0000391F000039090000F10900003B
:1036600000000000E1060000CD070000F90700009F
:103670008D0B0000B70B0000AB0B0000AF07000084
:10368000190800002F070000A836000000000020E5
:103690002C010000E8020000043700002C0100208B
:1036A000D4050000B02B0000011544BE1C0F35C02E
:1036B00000C10432143420AC3402840633D7352ED2
:1036C00009021800010105C000092111013701227A
:1036D000300009043301034404000932B9342008DE
:1036E0003633103632CC34201836420432D4F4202B
:1036F000030302100845120110016240F6010102A5
:0437000003010000C1
:040000050000026D88
:00000001FF
